:020000040800F2
:100000001008002089010008E5010008E50100084A
:10001000E5010008E5010008E50100080000000016
:10002000000000000000000000000000E5010008E2
:10003000E501000800000000E5010008E5010008F6
:10004000E5010008E5010008E5010008E5010008F8
:10005000E5010008E5010008E5010008E5010008E8
:10006000E5010008E5010008E5010008E5010008D8
:10007000E5010008E5010008E5010008E5010008C8
:10008000E5010008E5010008E5010008E5010008B8
:10009000E5010008E5010008E5010008E5010008A8
:1000A000E5010008E5010008E5010008E501000898
:1000B000E5010008E5010008E5010008E501000888
:1000C000E5010008E5010008E5010008E501000878
:1000D000E5010008E5010008E5010008E501000868
:1000E000E5010008E5010008E5010008E501000858
:1000F000E5010008E5010008E5010008E501000848
:10010000E5010008E5010008E5010008E501000837
:10011000E5010008E5010008E5010008E501000827
:10012000E5010008E5010008E5010008E501000817
:10013000E5010008E5010008E5010008E501000807
:10014000E5010008E5010008E5010008E5010008F7
:10015000E5010008E5010008E5010008E5010008E7
:10016000E5010008E5010008E5010008E5010008D7
:10017000E5010008E5010008E5010008E5010008C7
:10018000E5010008E501000880B582B000AF104B22
:100190007B60104B3B6007E03B681A1D3A607A6851
:1001A000111D796012681A603A680B4B9A42F3D3BA
:1001B0000A480B494FF000028842B8BF40F8042BB0
:1001C000FFF6FAAF00F012F80837BD4680BD00BF59
:1001D000AC06000800000020000000200000002005
:1001E0000C00002080B400AFFEE700BF80B500AF78
:1001F00000F0DCF800F080F9FEE700BF80B483B0C7
:1002000000AF78600B46FB70FB78002B06D0094BE3
:10021000084A116B7A680A431A6306E0054B054ADF
:10022000116B7A68D2430A401A630C37BD465DF8F9
:10023000047B70470038024080B487B000AF78601C
:10024000396000237B6100233B610023FB600023B6
:100250007B6176E07B69012202FA03F33B613B6834
:100260001A683B691340FB60FA683B699A4265D1A2
:100270007B681A687B695B00032101FA03F3DB43A7
:100280001A407B681A607B681A683B681B791946BC
:100290007B695B0001FA03F31A437B681A603B68D1
:1002A0001B79012B03D03B681B79022B2ED17B6875
:1002B0009A687B695B00032101FA03F3DB431A4070
:1002C0007B689A607B689A683B685B7919467B69B2
:1002D0005B0001FA03F31A437B689A607B685A68F3
:1002E0007B699BB2012101FA03F3DB431A407B686F
:1002F0005A607B685A683B689B7919467B699BB258
:1003000001FA03F39BB21A437B685A607B68DA6890
:100310007B699BB25B00032101FA03F3DB431A40C4
:100320007B68DA607B68DA683B68DB7919467B6951
:100330005B0001FA03F31A437B68DA607B690133DF
:100340007B617B690F2B85D91C37BD465DF8047B2B
:10035000704700BF80B485B000AF78600B467B80EB
:100360000023FB737B681A697B881340002B02D043
:100370000123FB7301E00023FB73FB7B184614375A
:10038000BD465DF8047B704780B483B000AF7860F1
:100390000B467B807B685A697B885A407B685A6130
:1003A0000C37BD465DF8047B704700BF80B500AFD9
:1003B000114B114A126842F001021A600E4B0022E2
:1003C0009A600D4A0C4B1B6823F0847323F480332E
:1003D0001360094B094A5A60074B074A126822F416
:1003E00080221A60044B0022DA6000F00BF8044B04
:1003F0004FF000629A6080BD003802401030002447
:1004000000ED00E080B483B000AF00237B600023E8
:100410003B60354B344A126842F480321A60324BEA
:100420001B6803F400333B607B6801337B603B68EF
:10043000002B03D17B68B3F5A06FF0D12A4B1B686A
:1004400003F40033002B02D001233B6001E00023C2
:100450003B603B68012B42D1234B234A126C42F094
:1004600080521A64214B214A126842F480421A6079
:100470001D4B1D4A92689A601B4B1B4A926842F4BE
:1004800000429A60184B184A926842F4A0529A604F
:10049000154B174A5A60144B134A126842F0807287
:1004A0001A6000BF104B1B6803F00073002BF9D0DB
:1004B000104B40F205621A600B4B0B4A926822F017
:1004C00003029A60084B084A926842F002029A605E
:1004D00000BF054B9B6803F00C03082BF9D10C37C8
:1004E000BD465DF8047B7047003802400070004054
:1004F000042A4004003C024080B588B000AF0B20C5
:100500000121FFF77BFE5B4B4FF470421A60594BA1
:1005100001221A71574B00229A71564B03225A71CD
:10052000544B0022DA7154485249FFF785FE514B73
:1005300001221A604F4B00221A714E4B03225A714E
:100540004C4B0022DA714D484A49FFF775FE494B82
:100550004FF480521A60474B00221A71454B032218
:100560005A71444B0122DA7145484249FFF764FE53
:10057000444BFB61444BFB60424BBB604FF0FF338D
:10058000BB6100237B6101233B6101237B603C480D
:100590004FF48051FFF7DEFE03467B607B68002B43
:1005A00011D13B69012B0ED17B69002B14BF0023B5
:1005B0000123DBB27B617B69002B04D1314BFB61F2
:1005C0004FF0FF33BB617B683B612B484FF4805198
:1005D000FFF7DAFEF86900F059F827484FF4805128
:1005E000FFF7D2FE24484FF40051FFF7CDFEF86923
:1005F00000F04CF820484FF40051FFF7C5FE1E48AC
:100600004FF48041FFF7C0FEF86900F03FF81A4848
:100610004FF48041FFF7B8FE17484FF40041FFF751
:10062000B3FEF86900F032F813484FF40041FFF7C9
:10063000ABFE7B69002B1CD1BB69B3F1FF3F0BD133
:10064000FB6903F5C333A033FB61FA69BB689A42C7
:100650000FD30123BB619AE7FB69A3F5C333A03B2A
:10066000FB61FA69FB689A4203D84FF0FF33BB6124
:100670008DE78CE704000020000C024000000240DF
:1006800000040240404B4C0020A1070080B483B01E
:1006900000AF786000BF7B685A1E7A60002BFAD1E9
:0C06A0000C37BD465DF8047B704700BFBE
:0400000508000000EF
:00000001FF
